:020000040000FA
:1000000008040020D5030000FF07000001080000DD
:1000100003080000050800000708000000000000B9
:1000200000000000000000000000000009080000BF
:100030000B080000000000000D080000ED030000A8
:10004000EF030000F1030000F3030000F5030000DC
:10005000F7030000F9030000FB030000FD030000AC
:10006000FF03000001040000000000000000000089
:100070000000000000000000000000000000000080
:100080000000000000000000000000000000000070
:100090000000000000000000000000000000000060
:1000A0000000000000000000000000000000000050
:1003C000DFF80CD000F046FA0048004711070000A3
:1003D000080400200B4880470B480047FEE7FEE773
:1003E000FEE7FEE7FEE7FEE7FEE7FEE7FEE7FEE7E5
:1003F000FEE7FEE7FEE7FEE7FEE7FEE7FEE7FEE7D5
:10040000FEE7000015040000C10300000949084888
:10041000086070470949084808600848803001684A
:1004200041F4700101600349014808607047000011
:1004300040787D01000000200000000008ED00E091
:1004400070B500230D794C790A6819460360436042
:10045000036143618361C361036243628362C36278
:1004600003634363C0F8383000EB8306C6F800141A
:10047000C6F800185B1CFF2BF6D925B1012D05D05D
:10048000022D07D009E00169914301E001691143A0
:10049000016102E0816911438161012C0FD0022CBE
:1004A00014D0032C1CD0042C08D1016A1143016222
:1004B000016B11430163816A1143816270BD016A5E
:1004C00011430162C16A1143C1620FE0016A114325
:1004D0000162C16A1143C162016B1143016370BDC6
:1004E000016A11430162816A11438162416B1143C8
:1004F000416370BD02690A43026170474161704700
:1005000042680A434260704742688A4342607047CB
:1005100041607047006870470069704782690A430C
:1005200082617047C161704780697047826B0A437E
:1005300082637047806B7047026A0A430262006AF6
:100540007047426A0A434262406A7047026A0A433D
:100550000262C26A0A43C262026B0A4302637047C4
:10056000026A0A430262826A0A438262026B0A4397
:1005700002637047026A0A430262C26A0A43C262A5
:10058000426B0A4342637047026A0A430262826A0C
:100590000A438262426B0A4342637047D3B200EB64
:1005A0008303C3F800144FF47F7303EA92121044DC
:1005B000C0F80018704710B5002213460260426070
:1005C0008260C26002610C79012C00D101224C7959
:1005D000012C01D142F002028C79012C01D142F0B0
:1005E0000402CC79012C01D142F008020C7A012CD2
:1005F00001D142F010024C7A012C01D142F02002CC
:10060000897A012901D142F0400283608260102181
:100610000161406810F00C0F01D0002010BD0120D6
:1006200010BD4068C0F340007047406800F0010012
:1006300070474068C0F3C00070474068C0F3800056
:10064000704708214160704704214160704742684B
:10065000D207FCD10160704710B500228B5C446862
:10066000E407FCD10360521C8B5C002BF6D110BD5B
:1006700041688907FCD50068C0B2704700697047BF
:10068000C06800F001007047C068C0F340007047C8
:100690000121C16070470221C1607047C068C0F38A
:1006A00080007047C068C0F3C00070470421C1607B
:1006B00070470821C1607047816841F04001816046
:1006C0007047816821F04001816070471CB50F20A0
:1006D000009001208DF8040000200C4C8DF80500DE
:1006E00069462046FFF7ACFE0F212046FFF710FFBA
:1006F0000E212046FFF70CFF0D212046FFF708FFD3
:100700000B212046FFF704FF0721EEE70000014020
:1007100010B5FFF77FFE4FF4E13000F01BF80948F9
:1007200000F0AAF8084800F0A7F8064800F0A4F87E
:10073000064800F0A1F806A000F09EF800F022F8AC
:10074000002010BD20090000C8080000800900003A
:100750000D0A00000EB5012100228DF804108DF85D
:1007600005108DF808208DF806208DF809208DF8E9
:1007700007108DF80A10009069464FF04020FFF7EF
:100780001AFF0EBD10B503A000F076F8BDE81040CA
:10079000FFF79CBF0D0A2A2A2A2A2A2A204C454400
:1007A000204170706C69636174696F6E202A2A2A17
:1007B0002A2A2A0D0A00000070B50546C1B24FF082
:1007C00040242046FFF743FF6068C007FCD128465D
:1007D00070BD4FF0402041688907FCD5FFF748BF46
:1007E00010B5C1B24FF040242046FFF730FF6068DB
:1007F000C007FCD110BD4FF0FF307047FEE77047D7
:10080000FEE7FEE7FEE7FEE7704770477047704778
:100810007047704770477047704770477047704720
:100820007047704770477047704770477047704710
:100830007047704770477047704770477047704700
:1008400070477047704770477047704770477047F0
:1008500070477047064C074D06E0E06840F0010322
:1008600094E8070098471034AC42F6D3FFF7ACFD8C
:10087000C8090000E8090000014A024900F013B865
:10088000B90700000400002002E008C8121F08C1D8
:10089000002AFAD170477047002001E001C1121F01
:1008A000002AFBD170472DE9F04116460F46044659
:1008B000002503E03946B047641C6D1C20780028F1
:1008C000F8D12846BDE8F081200909202020202009
:1008D00020202020436F7079726967687420284354
:1008E0002920323031342D3230323120466974695A
:1008F000506F77657220546563686E6F6C6F6779AF
:1009000020436F2E2C4C74642E2020202020202089
:1009100020202020202020202020200D0A00000060
:100920000D0A2A2A2A2A2A2A2A2A2A2A2A2A2A2A64
:100930002A2A2A2A2A2A2A2A2A2A2A2A2A2A2A2A17
:100940002A2A2A2A2A2A2A2A2A2A2A2A2A2A2A2A07
:100950002A2A2A2A2A2A2A2A2A2A2A2A2A2A2A2AF7
:100960002A2A2A2A2A2A2A2A2A2A2A2A2A2A2A2AE7
:100970002A2A2A2A2A2A2A2A2A2A2A2A0D0A000068
:100980000D0A2D2D2D2D2D2D2D2D2D2D2D2D4649A5
:1009900054495F454D50555F4D3320506572697025
:1009A000686572616C73204170706C696361746911
:1009B0006F6E732044656D6F2D2D2D2D2D2D2D2DDA
:1009C0002D2D0D0A00000000E809000000000020A5
:1009D0000800000088080000F0090000080000205E
:1009E000000400009808000040787D01000000002D
:04000005000003C133
:00000001FF
